{
    "badMergeHeaders_Merge" : {
        "_info" : {
            "comment" : "",
            "filling-rpc-server" : "evm version 1.10.20-unstable-ba99e192-20220616",
            "filling-tool-version" : "retesteth-0.2.2-testinfo+commit.e48b58bc.Linux.g++",
            "generatedTestHash" : "7599057322d5a5508428c28ec3f32f90f16599a11f5ef8f6cb041b276fab8d9d",
            "lllcversion" : "Version: 0.5.14-develop.2022.6.16+commit.401d5358.Linux.g++",
            "solidity" : "Version: 0.8.5+commit.a4f2e591.Linux.g++",
            "source" : "src/BlockchainTestsFiller/InvalidBlocks/bcEIP3675/badMergeHeadersFiller.yml",
            "sourceHash" : "aee852d08c2156088c71d96892bf7377b2fb61ae74ac0719662adc9364d535de"
        },
        "blocks" : [
            {
                "blockHeader" : {
                    "baseFeePerGas" : "0x036b",
                    "bloom" : "0x00000000000000000000000000000000000000000000000000000000000000000000000000000000000000000000000000000000000000000000000000000000000000000000000000000000000000000000000000000000000000000000000000000000000000000000000000000000000000000000000000000000000000000000000000000000000000000000000000000000000000000000000000000000000000000000000000000000000000000000000000000000000000000000000000000000000000000000000000000000000000000000000000000000000000000000000000000000000000000000000000000000000000000000000000000000",
                    "coinbase" : "0x2adc25665018aa1fe0e6bc666dac8fc2697ff9ba",
                    "difficulty" : "0x00",
                    "extraData" : "0x00",
                    "gasLimit" : "0x40000000",
                    "gasUsed" : "0x00",
                    "hash" : "0xbad543ad06b5a5fd64ad708ac1e75889a42cf6c11219546c998d5b23127dadd3",
                    "mixHash" : "0x0000000000000000000000000000000000000000000000000000000000000000",
                    "nonce" : "0x0000000000000000",
                    "number" : "0x01",
                    "parentHash" : "0x5b9d3eaef39595729a1dcf609b9528bfb78d5580d9ddd883739c7ff7618b2b3d",
                    "receiptTrie" : "0x56e81f171bcc55a6ff8345e692c0f86e5b48e01b996cadc001622fb5e363b421",
                    "stateRoot" : "0x91a47c0307e885891b7681ae7ccd686a4054e3b75870583941929966f570060c",
                    "timestamp" : "0x079e",
                    "transactionsTrie" : "0x56e81f171bcc55a6ff8345e692c0f86e5b48e01b996cadc001622fb5e363b421",
                    "uncleHash" : "0x1dcc4de8dec75d7aab85b567b6ccd41ad312451b948a7413f0a142fd40d49347"
                },
                "blocknumber" : "1",
                "chainname" : "default",
                "rlp" : "0xf901fbf901f6a05b9d3eaef39595729a1dcf609b9528bfb78d5580d9ddd883739c7ff7618b2b3da01dcc4de8dec75d7aab85b567b6ccd41ad312451b948a7413f0a142fd40d49347942adc25665018aa1fe0e6bc666dac8fc2697ff9baa091a47c0307e885891b7681ae7ccd686a4054e3b75870583941929966f570060ca056e81f171bcc55a6ff8345e692c0f86e5b48e01b996cadc001622fb5e363b421a056e81f171bcc55a6ff8345e692c0f86e5b48e01b996cadc001622fb5e363b421b9010000000000000000000000000000000000000000000000000000000000000000000000000000000000000000000000000000000000000000000000000000000000000000000000000000000000000000000000000000000000000000000000000000000000000000000000000000000000000000000000000000000000000000000000000000000000000000000000000000000000000000000000000000000000000000000000000000000000000000000000000000000000000000000000000000000000000000000000000000000000000000000000000000000000000000000000000000000000000000000000000000000000000000000000000000000000800184400000008082079e00a0000000000000000000000000000000000000000000000000000000000000000088000000000000000082036bc0c0",
                "transactions" : [
                ],
                "uncleHeaders" : [
                ]
            },
            {
                "blocknumber" : "2",
                "chainname" : "default",
                "expectException" : "3675PreMerge1559BlockRejected",
                "rlp" : "0xf903f6f901f6a0bad543ad06b5a5fd64ad708ac1e75889a42cf6c11219546c998d5b23127dadd3a01dcc4de8dec75d7aab85b567b6ccd41ad312451b948a7413f0a142fd40d49346942adc25665018aa1fe0e6bc666dac8fc2697ff9baa091a47c0307e885891b7681ae7ccd686a4054e3b75870583941929966f570060ca056e81f171bcc55a6ff8345e692c0f86e5b48e01b996cadc001622fb5e363b421a056e81f171bcc55a6ff8345e692c0f86e5b48e01b996cadc001622fb5e363b421b90100000000000000000000000000000000000000000000000000000000000000000000000000000000000000000000000000000000000000000000000000000000000000000000000000000000000000000000000000000000000000000000000000000000000000000000000000000000000000000000000000000000000000000000000000000000000000000000000000000000000000000000000000000000000000000000000000000000000000000000000000000000000000000000000000000000000000000000000000000000000000000000000000000000000000000000000000000000000000000000000000000000000000000000000000000000008002844000000080820b8600a000000000000000000000000000000000000000000000000000000000000000008800000000000000008202fec0f901f9f901f6a0bad543ad06b5a5fd64ad708ac1e75889a42cf6c11219546c998d5b23127dadd3a01dcc4de8dec75d7aab85b567b6ccd41ad312451b948a7413f0a142fd40d4934794b94f5374fce5ed0000000097c15331677e6ebf0ba091a47c0307e885891b7681ae7ccd686a4054e3b75870583941929966f570060ca056e81f171bcc55a6ff8345e692c0f86e5b48e01b996cadc001622fb5e363b421a056e81f171bcc55a6ff8345e692c0f86e5b48e01b996cadc001622fb5e363b421b90100000000000000000000000000000000000000000000000000000000000000000000000000000000000000000000000000000000000000000000000000000000000000000000000000000000000000000000000000000000000000000000000000000000000000000000000000000000000000000000000000000000000000000000000000000000000000000000000000000000000000000000000000000000000000000000000000000000000000000000000000000000000000000000000000000000000000000000000000000000000000000000000000000000000000000000000000000000000000000000000000000000000000000000000000000000008002844000000080820b8600a000000000000000000000000000000000000000000000000000000000000000008800000000000000008202fe"
            },
            {
                "blocknumber" : "2",
                "chainname" : "default",
                "expectException" : "3675PreMerge1559BlockRejected",
                "rlp" : "0xf901fbf901f6a0bad543ad06b5a5fd64ad708ac1e75889a42cf6c11219546c998d5b23127dadd3a01dcc4de8dec75d7aab85b567b6ccd41ad312451b948a7413f0a142fd40d49348942adc25665018aa1fe0e6bc666dac8fc2697ff9baa091a47c0307e885891b7681ae7ccd686a4054e3b75870583941929966f570060ca056e81f171bcc55a6ff8345e692c0f86e5b48e01b996cadc001622fb5e363b421a056e81f171bcc55a6ff8345e692c0f86e5b48e01b996cadc001622fb5e363b421b90100000000000000000000000000000000000000000000000000000000000000000000000000000000000000000000000000000000000000000000000000000000000000000000000000000000000000000000000000000000000000000000000000000000000000000000000000000000000000000000000000000000000000000000000000000000000000000000000000000000000000000000000000000000000000000000000000000000000000000000000000000000000000000000000000000000000000000000000000000000000000000000000000000000000000000000000000000000000000000000000000000000000000000000000000000000008002844000000080820b8600a000000000000000000000000000000000000000000000000000000000000000008800000000000000008202fec0c0"
            },
            {
                "blocknumber" : "2",
                "chainname" : "default",
                "expectException" : "3675PreMerge1559BlockRejected",
                "rlp" : "0xf901fbf901f6a0bad543ad06b5a5fd64ad708ac1e75889a42cf6c11219546c998d5b23127dadd3a01dcc4de8dec75d7aab85b567b6ccd41ad312451b948a7413f0a142fd40d49347942adc25665018aa1fe0e6bc666dac8fc2697ff9baa091a47c0307e885891b7681ae7ccd686a4054e3b75870583941929966f570060ca056e81f171bcc55a6ff8345e692c0f86e5b48e01b996cadc001622fb5e363b421a056e81f171bcc55a6ff8345e692c0f86e5b48e01b996cadc001622fb5e363b421b90100000000000000000000000000000000000000000000000000000000000000000000000000000000000000000000000000000000000000000000000000000000000000000000000000000000000000000000000000000000000000000000000000000000000000000000000000000000000000000000000000000000000000000000000000000000000000000000000000000000000000000000000000000000000000000000000000000000000000000000000000000000000000000000000000000000000000000000000000000000000000000000000000000000000000000000000000000000000000000000000000000000000000000000000000000000000102844000000080820b8600a000000000000000000000000000000000000000000000000000000000000000008800000000000000008202fec0c0"
            },
            {
                "blocknumber" : "2",
                "chainname" : "default",
                "expectException" : "3675PreMerge1559BlockRejected",
                "rlp" : "0xf901fef901f9a0bad543ad06b5a5fd64ad708ac1e75889a42cf6c11219546c998d5b23127dadd3a01dcc4de8dec75d7aab85b567b6ccd41ad312451b948a7413f0a142fd40d49347942adc25665018aa1fe0e6bc666dac8fc2697ff9baa091a47c0307e885891b7681ae7ccd686a4054e3b75870583941929966f570060ca056e81f171bcc55a6ff8345e692c0f86e5b48e01b996cadc001622fb5e363b421a056e81f171bcc55a6ff8345e692c0f86e5b48e01b996cadc001622fb5e363b421b90100000000000000000000000000000000000000000000000000000000000000000000000000000000000000000000000000000000000000000000000000000000000000000000000000000000000000000000000000000000000000000000000000000000000000000000000000000000000000000000000000000000000000000000000000000000000000000000000000000000000000000000000000000000000000000000000000000000000000000000000000000000000000000000000000000000000000000000000000000000000000000000000000000000000000000000000000000000000000000000000000000000000000000000000000000000008302000002844000000080820b8600a000000000000000000000000000000000000000000000000000000000000000008800000000000000008202fec0c0"
            },
            {
                "blocknumber" : "2",
                "chainname" : "default",
                "expectException" : "3675PreMerge1559BlockRejected",
                "rlp" : "0xf903f6f901f6a0bad543ad06b5a5fd64ad708ac1e75889a42cf6c11219546c998d5b23127dadd3a0f769050e9e9874bfdb6a449976cc3ea317b3225296caf6da2db060d0f0ecb2f5942adc25665018aa1fe0e6bc666dac8fc2697ff9baa091a47c0307e885891b7681ae7ccd686a4054e3b75870583941929966f570060ca056e81f171bcc55a6ff8345e692c0f86e5b48e01b996cadc001622fb5e363b421a056e81f171bcc55a6ff8345e692c0f86e5b48e01b996cadc001622fb5e363b421b90100000000000000000000000000000000000000000000000000000000000000000000000000000000000000000000000000000000000000000000000000000000000000000000000000000000000000000000000000000000000000000000000000000000000000000000000000000000000000000000000000000000000000000000000000000000000000000000000000000000000000000000000000000000000000000000000000000000000000000000000000000000000000000000000000000000000000000000000000000000000000000000000000000000000000000000000000000000000000000000000000000000000000000000000000000000008002844000000080820b8600a000000000000000000000000000000000000000000000000000000000000000008800000000000000008202fec0f901f9f901f6a0bad543ad06b5a5fd64ad708ac1e75889a42cf6c11219546c998d5b23127dadd3a01dcc4de8dec75d7aab85b567b6ccd41ad312451b948a7413f0a142fd40d4934794b94f5374fce5ed0000000097c15331677e6ebf0ba091a47c0307e885891b7681ae7ccd686a4054e3b75870583941929966f570060ca056e81f171bcc55a6ff8345e692c0f86e5b48e01b996cadc001622fb5e363b421a056e81f171bcc55a6ff8345e692c0f86e5b48e01b996cadc001622fb5e363b421b90100000000000000000000000000000000000000000000000000000000000000000000000000000000000000000000000000000000000000000000000000000000000000000000000000000000000000000000000000000000000000000000000000000000000000000000000000000000000000000000000000000000000000000000000000000000000000000000000000000000000000000000000000000000000000000000000000000000000000000000000000000000000000000000000000000000000000000000000000000000000000000000000000000000000000000000000000000000000000000000000000000000000000000000000000000000008002844000000080820b8600a000000000000000000000000000000000000000000000000000000000000000008800000000000000008202fe"
            },
            {
                "blockHeader" : {
                    "baseFeePerGas" : "0x02fe",
                    "bloom" : "0x00000000000000000000000000000000000000000000000000000000000000000000000000000000000000000000000000000000000000000000000000000000000000000000000000000000000000000000000000000000000000000000000000000000000000000000000000000000000000000000000000000000000000000000000000000000000000000000000000000000000000000000000000000000000000000000000000000000000000000000000000000000000000000000000000000000000000000000000000000000000000000000000000000000000000000000000000000000000000000000000000000000000000000000000000000000",
                    "coinbase" : "0x2adc25665018aa1fe0e6bc666dac8fc2697ff9ba",
                    "difficulty" : "0x00",
                    "extraData" : "0x00",
                    "gasLimit" : "0x40000000",
                    "gasUsed" : "0x00",
                    "hash" : "0xd4e05919a10a592f1052853aa945352de652dd7cf1bf721b035ebe9144cf8ff5",
                    "mixHash" : "0x0000000000000000000000000000000000000000000000000000000000000000",
                    "nonce" : "0x0000000000000000",
                    "number" : "0x02",
                    "parentHash" : "0xbad543ad06b5a5fd64ad708ac1e75889a42cf6c11219546c998d5b23127dadd3",
                    "receiptTrie" : "0x56e81f171bcc55a6ff8345e692c0f86e5b48e01b996cadc001622fb5e363b421",
                    "stateRoot" : "0x91a47c0307e885891b7681ae7ccd686a4054e3b75870583941929966f570060c",
                    "timestamp" : "0x0b86",
                    "transactionsTrie" : "0x56e81f171bcc55a6ff8345e692c0f86e5b48e01b996cadc001622fb5e363b421",
                    "uncleHash" : "0x1dcc4de8dec75d7aab85b567b6ccd41ad312451b948a7413f0a142fd40d49347"
                },
                "blocknumber" : "2",
                "chainname" : "default",
                "rlp" : "0xf901fbf901f6a0bad543ad06b5a5fd64ad708ac1e75889a42cf6c11219546c998d5b23127dadd3a01dcc4de8dec75d7aab85b567b6ccd41ad312451b948a7413f0a142fd40d49347942adc25665018aa1fe0e6bc666dac8fc2697ff9baa091a47c0307e885891b7681ae7ccd686a4054e3b75870583941929966f570060ca056e81f171bcc55a6ff8345e692c0f86e5b48e01b996cadc001622fb5e363b421a056e81f171bcc55a6ff8345e692c0f86e5b48e01b996cadc001622fb5e363b421b90100000000000000000000000000000000000000000000000000000000000000000000000000000000000000000000000000000000000000000000000000000000000000000000000000000000000000000000000000000000000000000000000000000000000000000000000000000000000000000000000000000000000000000000000000000000000000000000000000000000000000000000000000000000000000000000000000000000000000000000000000000000000000000000000000000000000000000000000000000000000000000000000000000000000000000000000000000000000000000000000000000000000000000000000000000000008002844000000080820b8600a000000000000000000000000000000000000000000000000000000000000000008800000000000000008202fec0c0",
                "transactions" : [
                ],
                "uncleHeaders" : [
                ]
            }
        ],
        "genesisBlockHeader" : {
            "baseFeePerGas" : "0x03e8",
            "bloom" : "0x00000000000000000000000000000000000000000000000000000000000000000000000000000000000000000000000000000000000000000000000000000000000000000000000000000000000000000000000000000000000000000000000000000000000000000000000000000000000000000000000000000000000000000000000000000000000000000000000000000000000000000000000000000000000000000000000000000000000000000000000000000000000000000000000000000000000000000000000000000000000000000000000000000000000000000000000000000000000000000000000000000000000000000000000000000000",
            "coinbase" : "0x2adc25665018aa1fe0e6bc666dac8fc2697ff9ba",
            "difficulty" : "0x00",
            "extraData" : "0x00",
            "gasLimit" : "0x40000000",
            "gasUsed" : "0x00",
            "hash" : "0x5b9d3eaef39595729a1dcf609b9528bfb78d5580d9ddd883739c7ff7618b2b3d",
            "mixHash" : "0x0000000000000000000000000000000000000000000000000000000000000000",
            "nonce" : "0x0000000000000000",
            "number" : "0x00",
            "parentHash" : "0x0000000000000000000000000000000000000000000000000000000000000000",
            "receiptTrie" : "0x56e81f171bcc55a6ff8345e692c0f86e5b48e01b996cadc001622fb5e363b421",
            "stateRoot" : "0x91a47c0307e885891b7681ae7ccd686a4054e3b75870583941929966f570060c",
            "timestamp" : "0x03b6",
            "transactionsTrie" : "0x56e81f171bcc55a6ff8345e692c0f86e5b48e01b996cadc001622fb5e363b421",
            "uncleHash" : "0x1dcc4de8dec75d7aab85b567b6ccd41ad312451b948a7413f0a142fd40d49347"
        },
        "genesisRLP" : "0xf901fbf901f6a00000000000000000000000000000000000000000000000000000000000000000a01dcc4de8dec75d7aab85b567b6ccd41ad312451b948a7413f0a142fd40d49347942adc25665018aa1fe0e6bc666dac8fc2697ff9baa091a47c0307e885891b7681ae7ccd686a4054e3b75870583941929966f570060ca056e81f171bcc55a6ff8345e692c0f86e5b48e01b996cadc001622fb5e363b421a056e81f171bcc55a6ff8345e692c0f86e5b48e01b996cadc001622fb5e363b421b901000000000000000000000000000000000000000000000000000000000000000000000000000000000000000000000000000000000000000000000000000000000000000000000000000000000000000000000000000000000000000000000000000000000000000000000000000000000000000000000000000000000000000000000000000000000000000000000000000000000000000000000000000000000000000000000000000000000000000000000000000000000000000000000000000000000000000000000000000000000000000000000000000000000000000000000000000000000000000000000000000000000000000000000000000000000080808440000000808203b600a000000000000000000000000000000000000000000000000000000000000000008800000000000000008203e8c0c0",
        "lastblockhash" : "0xd4e05919a10a592f1052853aa945352de652dd7cf1bf721b035ebe9144cf8ff5",
        "network" : "Merge",
        "postState" : {
            "0xa94f5374fce5edbc8e2a8697c15331677e6ebf0b" : {
                "balance" : "0x010000000000",
                "code" : "0x",
                "nonce" : "0x01",
                "storage" : {
                }
            }
        },
        "pre" : {
            "0xa94f5374fce5edbc8e2a8697c15331677e6ebf0b" : {
                "balance" : "0x010000000000",
                "code" : "0x",
                "nonce" : "0x01",
                "storage" : {
                }
            }
        },
        "sealEngine" : "NoProof"
    }
}